:020000040800F2
:1000000000000320815300088D5000088F50000825
:10001000915000089350000895500008000000001F
:10002000000000000000000000000000613C00082B
:100030009750000800000000013D0008653D0008E1
:10004000D1530008D1530008D1530008D153000800
:10005000D153000899500008D1530008D15300082B
:10006000D1530008D1530008D1530008D1530008E0
:10007000D1530008D1530008D1530008D1530008D0
:10008000D1530008D1530008D1530008D1530008C0
:10009000D1530008D1530008D1530008D1530008B0
:1000A000D15300089D500008D1530008D1530008D7
:1000B000D1530008D1530008D1530008D153000890
:1000C000D1530008D1530008D1530008D153000880
:1000D000D1530008C1500008D1530008D153000883
:1000E000D1530008D1530008D1530008D153000860
:1000F000D1530008D1530008D1530008D153000850
:10010000D1530008D1530008D1530008D15300083F
:10011000D1530008D1530008D1530008D15300082F
:10012000D1530008D15300081D510008D1530008D5
:10013000D1530008D1530008D1530008D15300080F
:10014000D1530008D1530008D1530008D1530008FF
:10015000D1530008D15300082D510008D153000895
:10016000D1530008D1530008D1530008D1530008DF
:10017000D1530008D1530008D153000800000000FB
:10018000D1530008D1530008D1530008D1530008BF
:10019000D1530008D1530008D1530008D1530008AF
:0C01A000D1530008D1530008D1530008CF
:1001B00010B5054C237833B9044B13B10448AFF3A1
:1001C00000800123237010BD1000002000000000FB
:1001D0004454000808B5034B1BB103490348AFF36F
:1001E000008008BD000000001400002044540008F6
:1001F00081F0004102E000BF83F0004330B54FEAD8
:1002000041044FEA430594EA050F08BF90EA020F44
:100210001FBF54EA000C55EA020C7FEA645C7FEAD7
:10022000655C00F0E2804FEA5454D4EB5555B8BFFA
:100230006D420CDD2C4480EA020281EA030382EA6B
:10024000000083EA010180EA020281EA0303362DFD
:1002500088BF30BD11F0004F4FEA01314FF4801CD0
:100260004CEA113102D0404261EB410113F0004FE2
:100270004FEA03334CEA133302D0524263EB430399
:1002800094EA050F00F0A780A4F10104D5F1200E37
:100290000DDB02FA0EFC22FA05F2801841F1000192
:1002A00003FA0EF2801843FA05F359410EE0A5F166
:1002B00020050EF1200E012A03FA0EFC28BF4CF097
:1002C000020C43FA05F3C01851EBE37101F000454D
:1002D00007D54FF0000EDCF1000C7EEB00006EEB5A
:1002E0000101B1F5801F1BD3B1F5001F0CD34908E4
:1002F0005FEA30004FEA3C0C04F101044FEA44523B
:1003000012F5800F80F09A80BCF1004F08BF5FEAC1
:10031000500C50F1000041EB045141EA050130BDA1
:100320005FEA4C0C404141EB010111F4801FA4F144
:100330000104E9D191F0000F04BF01460020B1FA99
:1003400081F308BF2033A3F10B03B3F120020CDAD1
:100350000C3208DD02F1140CC2F10C0201FA0CF0AF
:1003600021FA02F10CE002F11402D8BFC2F1200C14
:1003700001FA02F120FA0CFCDCBF41EA0C019040CA
:10038000E41AA2BF01EB0451294330BD6FEA040413
:100390001F3C1CDA0C340EDC04F11404C4F12002FE
:1003A00020FA04F001FA02F340EA030021FA04F310
:1003B00045EA030130BDC4F10C04C4F1200220FA67
:1003C00002F001FA04F340EA0300294630BD21FAA5
:1003D00004F0294630BD94F0000F83F4801306BF6B
:1003E00081F480110134013D4EE77FEA645C18BF5F
:1003F0007FEA655C29D094EA050F08BF90EA020FF6
:1004000005D054EA000C04BF1946104630BD91EAED
:10041000030F1EBF0021002030BD5FEA545C05D1F0
:100420004000494128BF41F0004130BD14F580042F
:100430003CBF01F5801130BD01F0004545F0FE41A3
:1004400041F470014FF0000030BD7FEA645C1ABFD8
:10045000194610467FEA655C1CBF0B46024650EA0F
:10046000013406BF52EA033591EA030F41F400213B
:1004700030BD00BF90F0000F04BF0021704730B5C1
:100480004FF4806404F132044FF000054FF0000196
:1004900050E700BF90F0000F04BF0021704730B557
:1004A0004FF4806404F1320410F0004548BF40422C
:1004B0004FF000013EE700BF42004FEAE2014FEA81
:1004C00031014FEA02701FBF12F07F4393F07F4F5C
:1004D00081F06051704732F07F4208BF704793F05F
:1004E0007F4F04BF41F40021704730B54FF4607472
:1004F00001F0004521F000411CE700BF50EA010275
:1005000008BF704730B54FF000050AE050EA01021D
:1005100008BF704730B511F0004502D5404261EB8D
:1005200041014FF4806404F132045FEA915C3FF4CE
:10053000D8AE4FF003025FEADC0C18BF03325FEA6B
:10054000DC0C18BF033202EBDC02C2F1200300FA1C
:1005500003FC20FA02F001FA03FE40EA0E0021FA41
:1005600002F11444BDE600BF70B54FF0FF0C4CF42F
:10057000E06C1CEA11541DBF1CEA135594EA0C0FE1
:1005800095EA0C0F00F0DEF82C4481EA030621EA1C
:100590004C5123EA4C5350EA013518BF52EA033557
:1005A00041F4801143F4801338D0A0FB02CE4FF009
:1005B0000005E1FB02E506F00042E0FB03E54FF039
:1005C0000006E1FB03569CF0000F18BF4EF0010E31
:1005D000A4F1FF04B6F5007F64F5407404D25FEA2D
:1005E0004E0E6D4146EB060642EAC62141EA5551E0
:1005F0004FEAC52040EA5E504FEACE2EB4F1FD0C22
:1006000088BFBCF5E06F1ED8BEF1004F08BF5FEA9F
:10061000500E50F1000041EB045170BD06F0004651
:1006200046EA010140EA020081EA0301B4EB5C04FE
:10063000C2BFD4EB0C0541EA045170BD41F48011F6
:100640004FF0000E013C00F3AB8014F1360FDEBF1B
:10065000002001F0004170BDC4F10004203C35DAF7
:100660000C341BDC04F11404C4F1200500FA05F37A
:1006700020FA04F001FA05F240EA020001F000421B
:1006800021F0004110EBD37021FA04F642EB060191
:100690005EEA430E08BF20EAD37070BDC4F10C04BB
:1006A000C4F1200500FA04F320FA05F001FA04F27F
:1006B00040EA020001F0004110EBD37041F100016B
:1006C0005EEA430E08BF20EAD37070BDC4F1200576
:1006D00000FA05F24EEA020E20FA04F301FA05F2DE
:1006E00043EA020321FA04F001F0004121FA04F286
:1006F00020EA020000EBD3705EEA430E08BF20EA56
:10070000D37070BD94F0000F0FD101F0004640008F
:1007100041EB010111F4801F08BF013CF7D041EA11
:10072000060195F0000F18BF704703F00046520015
:1007300043EB030313F4801F08BF013DF7D043EAE6
:100740000603704794EA0C0F0CEA135518BF95EA9C
:100750000C0F0CD050EA410618BF52EA4306D1D123
:1007600081EA030101F000414FF0000070BD50EA42
:10077000410606BF1046194652EA430619D094EACC
:100780000C0F02D150EA013613D195EA0C0F05D1B6
:1007900052EA03361CBF104619460AD181EA03010A
:1007A00001F0004141F0FE4141F470014FF00000C2
:1007B00070BD41F0FE4141F4780170BD70B54FF05D
:1007C000FF0C4CF4E06C1CEA11541DBF1CEA1355DD
:1007D00094EA0C0F95EA0C0F00F0A7F8A4EB0504BF
:1007E00081EA030E52EA03354FEA013100F08880B6
:1007F0004FEA03334FF0805545EA131343EA12637F
:100800004FEA022245EA111545EA10654FEA002633
:100810000EF000419D4208BF964244F1FD0404F5EC
:10082000407402D25B084FEA3202B61A65EB030548
:100830005B084FEA32024FF480104FF4002CB6EB05
:10084000020E75EB030E22BFB61A754640EA0C0085
:100850005B084FEA3202B6EB020E75EB030E22BFC5
:10086000B61A754640EA5C005B084FEA3202B6EB06
:10087000020E75EB030E22BFB61A754640EA9C00C5
:100880005B084FEA3202B6EB020E75EB030E22BF95
:10089000B61A754640EADC0055EA060E18D04FEA53
:1008A000051545EA16754FEA06164FEAC30343EAF3
:1008B00052734FEAC2025FEA1C1CC0D111F4801FC0
:1008C0000BD141EA00014FF000004FF0004CB6E7B9
:1008D00011F4801F04BF01430020B4F1FD0C88BF58
:1008E000BCF5E06F3FF6AFAEB5EB030C04BFB6EB63
:1008F000020C5FEA500C50F1000041EB045170BD56
:100900000EF0004E4EEA113114EB5C04C2BFD4EB82
:100910000C0541EA045170BD41F480114FF0000E06
:10092000013C90E645EA060E8DE60CEA135594EA82
:100930000C0F08BF95EA0C0F3FF43BAF94EA0C0F85
:100940000AD150EA01347FF434AF95EA0C0F7FF4FA
:1009500025AF104619462CE795EA0C0F06D152EA4E
:1009600003353FF4FDAE1046194622E750EA410632
:1009700018BF52EA43067FF4C5AE50EA41047FF443
:100980000DAF52EA43057FF4EBAE12E74A0011D2F5
:1009900012F5001211D20DD56FF47873B3EB6252D9
:1009A0000ED44FEAC12343F0004343EA505323FAE5
:1009B00002F070474FF00000704750EA013002D15A
:1009C0004FF0FF3070474FF0000070474FEA410290
:1009D000B2F1E04324BFB3F5001CDCF1FE5C0DD99D
:1009E00001F0004C4FEAC0024CEA5070B2F1004FE7
:1009F00040EB830008BF20F00100704711F0804FEA
:100A000021D113F13872BCBF01F00040704741F4AE
:100A100080114FEA5252C2F11802C2F1200C10FAB2
:100A20000CF320FA02F018BF40F001004FEAC12396
:100A30004FEAD32303FA0CFC40EA0C0023FA02F33A
:100A40004FEA4303CCE77FEA625307D150EA013310
:100A50001EBF4FF0FE4040F44000704701F00040E0
:100A600040F0FE4040F40000704700BF53B94AB95F
:100A7000002908BF00281CBF4FF0FF314FF0FF30A6
:100A800000F072B9ADF1080C6DE904CE00F006F883
:100A9000DDF804E0DDE9022304B070472DE9F047FA
:100AA000089E04468846002B4BD18A42154667D9DA
:100AB000B2FA82F24AB1C2F1200701FA02F320FA37
:100AC00007F7954047EA030894404FEA154E230C78
:100AD000B8FBFEF71FFA85FC0EFB178843EA0843B4
:100AE00007FB0CF1994209D9EB1807F1FF3080F0B0
:100AF0001B81994240F21881023F2B445B1AA4B239
:100B0000B3FBFEF00EFB103344EA034400FB0CFC85
:100B1000A44509D92C1900F1FF3380F00781A445C1
:100B200040F2048102382C4440EA0740A4EB0C0454
:100B300000271EB1D4400023C6E900433946BDE872
:100B4000F0878B4209D9002E00F0EB800027C6E920
:100B5000000138463946BDE8F087B3FA83F7002F25
:100B600047D18B4202D3824200F2FA80841A61EBB1
:100B7000030301209846002EE0D0C6E90048DDE7D7
:100B800002B9FFDEB2FA82F2002A40F08F80491BE0
:100B90004FEA154E1FFA85F80127B1FBFEFC230C26
:100BA0000EFB1C1143EA014308FB0CF1994207D9E3
:100BB000EB180CF1FF3002D2994200F2CD8084464E
:100BC000591AA3B2B1FBFEF00EFB101443EA044421
:100BD00008FB00F8A04507D92C1900F1FF3302D219
:100BE000A04500F2B6801846A4EB080440EA0C4089
:100BF0009FE7C7F1200CBB4022FA0CFE4EEA030E21
:100C000001FA07F420FA0CF521FA0CF34FEA1E481A
:100C10002543B3FBF8F92C0C08FB19331FFA8EFAA5
:100C200044EA034309FB0AF49C4202FA07F200FA81
:100C300007F10BD91EEB030309F1FF3080F0878029
:100C40009C4240F28480A9F1020973441B1BADB29F
:100C5000B3FBF8F008FB103345EA034400FB0AFA43
:100C6000A24508D91EEB040400F1FF336BD2A24564
:100C700069D90238744440EA0940A0FB0289A4EB18
:100C80000A044C45C2464B4654D351D0002E69D07D
:100C9000B1EB0A0564EB030404FA0CFCFD40FC40D4
:100CA0004CEA0505C6E90054002747E7C2F12003D6
:100CB00020FA03F7954001FA02F021FA03F34FEA14
:100CC000154E3843010CB3FBFEF71FFA85F80EFBF7
:100CD000173341EA034107FB08F38B4204FA02F49D
:100CE00007D9691807F1FF3C2FD28B422DD9023F5B
:100CF0002944CB1A81B2B3FBFEF00EFB103341EA5C
:100D0000034100FB08F38B4207D9691800F1FF3C4F
:100D100017D28B4215D902382944C91A40EA07472D
:100D20003BE73746304609E70746E7E61846FBE665
:100D30004145ABD2B8EB020A69EB0E02013813460B
:100D4000A4E76046E9E7184695E76746D1E781469C
:100D50007CE702382C4447E7ACF1020C2B442FE728
:100D6000384608E73746E9E6704700BF034A11688E
:100D7000034B1B780B441360704700BF38440020BE
:100D800000000020014B1868704700BF3844002065
:100D900030B4174BDB68C3F30223C3F10704042C00
:100DA00028BF04241D1D062D18D9033B4FF0FF3525
:100DB00005FA04F421EA0401994005FA03F322EA52
:100DC0000303194300280BDB0901C9B200F160409D
:100DD00000F5614080F8001330BC70470023E5E760
:100DE00000F00F000901C9B2024B1954F4E700BF2B
:100DF00000ED00E014ED00E0002807DB00F01F022A
:100E0000400901239340024A42F82030704700BF56
:100E100000E100E030B405682C6824F480242C60E4
:100E2000046863608368402B05D003689960036899
:100E3000DA6030BC704703689A600368D960F8E7ED
:100E40000268D3B2103B0B49A1FB03131B090A49EB
:100E5000C95CC165032B06D822F47F7222F003021D
:100E60008265806D704722F47F7222F003020432A3
:100E70008265F6E7ABAAAAAA5C540008836A826975
:100E800092B9012B0AD01BB1022B01D00020704770
:100E9000C36A13F0807F2CD100207047C36AB3F17E
:100EA000C07F28D000207047B2F5005F05D0022B2C
:100EB00029D9032B15D000207047032B03D8DFE876
:100EC00003F01C041C0A00207047C36A13F0807FE3
:100ED00015D100207047C36AB3F1C07F11D0002044
:100EE0007047C36A13F0807F01D001207047002053
:100EF0007047012070470120704701207047012092
:100F000070470120704701207047000070B504460B
:100F1000FFF738FF002C5BD00546002384F83430FF
:100F2000022384F835302268136823F0010313602C
:100F300023681A6812F0010F0AD0FFF723FF401B45
:100F40000528F5D920236365032084F8350070BD9A
:100F50001A68204810406168A2680A43E1680A43A1
:100F600021690A4361690A43A1690A43E1690A43A5
:100F7000216A0A430243616A04291ED01A60266866
:100F8000756925F00705636A1D43042B07D1A36A21
:100F90001D43E36A1BB12046FFF770FF90B97561EE
:100FA0002046FFF74DFFE26D3F2393408360002012
:100FB0006065012384F83530C9E7E16A206B01439D
:100FC0000A43DBE740236365012084F83500BEE770
:100FD0000120BCE73F8010F038B5856D90F83440B3
:100FE000012C31D0012480F8344090F83540E4B22F
:100FF000012C04D0002380F83430022038BD044690
:10100000022084F83500002060652046FFF702FFCB
:10101000E26D3F239340AB602268136843F01603F0
:1010200013602268536943F080035361236C23B13A
:101030002268136843F0080313602268136843F0C2
:10104000010313600020D9E70220D7E770B50446FA
:10105000866DFFF797FE94F83530DBB2022B06D091
:1010600080236365002384F83430012070BD054679
:101070002268136823F0160313602268536923F073
:1010800080035361236CE3B12268136823F00803E3
:1010900013602268136823F00103136023681B6840
:1010A00013F0010F11D0FFF76DFE401B0528F5D995
:1010B00020236365002384F83430032084F835004E
:1010C000D4E7A36C002BDFD1E3E7E26D3F2393402D
:1010D000B360002084F83400012384F83530C5E77C
:1010E00090F83530DBB2022B03D08023436501201A
:1010F0007047052380F835300268136823F0010338
:101100001360002070470000F0B583B00446002350
:101110000193724B1D68724BA3FB0535AD0A876DB9
:101120003E68C26D08239340334210D003681A68AA
:1011300012F0040F0BD01A6822F004021A60C26D7C
:1011400008239340BB60436D43F001034365E26DA8
:1011500001239340334209D02268526912F0800F74
:1011600004D0BB60636D43F002036365E26D04234A
:101170009340334209D02268126812F0020F04D063
:10118000BB60636D43F004036365E26D102393401D
:10119000334224D02268126812F0080F1FD0BB60BF
:1011A00023681A6812F4802F0DD01B6813F4002FE7
:1011B00004D1236C9BB12046984710E0A36C73B117
:1011C000204698470BE01A6812F4807F03D11A6812
:1011D00022F008021A60236C0BB120469847E26D9A
:1011E00020239340334255D02268126812F0100F2A
:1011F00050D0BB6094F83530DBB2052B0ED023689D
:101200001A6812F4802F33D01B6813F4002F2AD1F0
:10121000636C002B3ED0204698473BE02268136861
:1012200023F0160313602268536923F0800353618F
:10123000236CA3B12268136823F008031360E26DE6
:101240003F239340BB60002384F83430012384F8AB
:101250003530236D002B3FD0204698473CE0A36CEF
:10126000002BE7D1EBE7E36BA3B12046984711E0F1
:101270001A6812F4807F09D11A6822F010021A60ED
:10128000002384F83430012384F83530E36B0BB14C
:1012900020469847636DFBB1636D13F0010F17D0C3
:1012A000052384F835302268136823F001031360A6
:1012B000019B01330193AB4204D823681B6813F0F0
:1012C000010FF5D1002384F83430012384F8353040
:1012D000E36C0BB12046984703B0F0BD0C00002032
:1012E000B5814E1B00230F2B00F2E380F0B482B0D7
:1012F00039E0092200E00022B2403A4302346D4E48
:1013000046F824206C4A1468EA4302EA04064F684F
:1013100017F4803F01D045EA0406674C26606468F4
:1013200002EA04064F6817F4003F01D045EA0406BC
:10133000614C6660A46802EA04064F6817F4801FD7
:1013400001D045EA04065C4CA660E46822404E6881
:1013500016F4001F01D045EA0402574CE260013345
:101360000F2B00F2A38001229A400C6804EA0205C8
:10137000AA42F4D14C68022C01D0122C10D1DE0804
:10138000083650F826C003F00704A7000F24BC401D
:101390002CEA040C0C69BC4044EA0C0440F82640DA
:1013A00004685F000326BE40F64306EA040C4C685E
:1013B00004F00304BC4044EA0C0404604C6804F1EB
:1013C000FF3CBCF1010F03D9112C01D0122C10D11C
:1013D000846806EA040CCC68BC4044EA0C048460CF
:1013E000446824EA02024C68C4F300149C4014438D
:1013F0004460C26816408A68BA403243C2604A6894
:1014000012F0805FABD0002201922C4A546C44F45D
:1014100080445464526C02F480420192019A9C0808
:10142000A61C244A52F8267003F0030296000F22ED
:10143000B24027EA0207224A90423FF45CAF02F52D
:101440008062904222D002F58062904220D002F564
:10145000806290421ED002F5806290421CD002F55C
:10146000806290421AD002F58062904218D002F554
:101470008062904216D002F58062904214D002F54C
:10148000806290423FF435AF0A2235E7012233E70C
:10149000022231E703222FE704222DE705222BE762
:1014A000062229E7072227E7082225E702B0F0BC39
:1014B0007047704700380140003C0140003802404E
:1014C0000000024012B909048161704781617047D0
:1014D000436931EA030301D08161704709048161E6
:1014E0007047F8B506460C4617461D4622E0FFF742
:1014F00049FC069BC01AA84200D8DDB9002333631B
:10150000202286F83D2086F83E30326C42F02002E0
:10151000326486F83C3001201AE033685B6924EAC3
:1015200003039BB2B3FA83F35B099F420FD1B5F17A
:10153000FF3FDCD1C4F30743012BEED033689B6936
:1015400024EA03039BB2B3FA83F35B09EDE70020BF
:10155000F8BD0000002800F0BE80F8B5044690F801
:101560003D30002B6BD0242384F83D302268136873
:1015700023F00103136000F095FC6268584B9A4217
:1015800062D8584B98428CBF00230123002B40F0B7
:10159000A480554BA3FB00239B0C21684A6822F0D2
:1015A0003F021A434A6025682A6A22F03F026668B1
:1015B0004B498E424ED8013313432B622568E969AB
:1015C00021F44F4121F0FF016368454A93424BD813
:1015D00001385B00B0FBF3F30133C3F30B03042BBF
:1015E00038BF04230B43EB6121680B6823F0C00371
:1015F000E269206A024313430B6021688B6823F47D
:10160000034323F0FF032269E068024313438B6026
:101610002168CB6823F0FF036269A069024313438A
:10162000CB602268136843F001031360002020643C
:10163000202384F83D30206384F83E00F8BD80F814
:101640003C3003F06DFC8EE7284B98428CBF0023A2
:1016500001239BE74FF4967101FB03F32449A1FB9F
:1016600003139B090133A7E7A268BAB9461E03EB2F
:101670004307B6FBF7F60136C6F30B06B6FA86F655
:10168000760936BBC2B9013803EB4303B0FBF3F371
:101690000133C3F30B0242F40043A3E7461E03EBFE
:1016A000830707EB8707B6FBF7F60136C6F30B0691
:1016B000B6FA86F67609E4E7013803EB830303EB19
:1016C0008303B0FBF3F20132C2F30B0242F4404356
:1016D00088E7012386E7012070470120AEE700BFBD
:1016E000A08601007F841E0083DE1B43FF083D00AF
:1016F000D34D62102DE9F04385B0044688469146EB
:101700001D46FFF73FFB94F83D30DBB2202B04D0A1
:101710000223184605B0BDE8F08306460090192361
:10172000012254492046FFF7DCFE002840F0978054
:1017300094F83C30012B00F09480012384F83C3075
:1017400023681A6812F0010F03D11A6842F00102EF
:101750001A602268136823F400631360242384F85A
:101760003D3000232364A3F58033E362012734E096
:10177000A02384F83D3023685A69C2F340025969B6
:10178000C1F3802194F83D30DBB2A02B09D042B9DF
:1017900039B9FFF7F7FA801BA842E9D8002DEAD142
:1017A000E6E7202384F83D3023685A6912F0020FDF
:1017B00031D11A6842F400721A6023686FF48062B3
:1017C0005A610096192301222A492046FFF789FE13
:1017D00000284CD101374F4539D22268136843F4B1
:1017E0008073136000962B4600224FF001112046B3
:1017F000FFF777FE002836D1236808F0FE021A6151
:10180000FFF7C0FA064623685A69C2F340025969D5
:10181000C1F38021B6E71A6842F400721A6000230F
:10182000039323685A6903929B690393039B009671
:10183000192301220F492046FFF753FE0346A0B9A2
:10184000202284F83D20002284F83C2061E72023F8
:1018500084F83D30002384F83C30012359E702230B
:1018600057E7022355E7012353E7012351E70123FB
:101870004FE700BF0200100090F83D30DBB2202B94
:101880001AD1242380F83D300268136823F0010345
:1018900013600268536A23F0100353620268536AAC
:1018A000194351620268136843F001031360202357
:1018B00080F83D30002070470220704790F83D309E
:1018C000DBB2202B19D1242380F83D300268136845
:1018D00023F0010313600268536A9BB223F00F03E5
:1018E000194389B251620268136843F0010313601F
:1018F000202380F83D300020704702207047000010
:10190000002800F0BB8170B582B00446036813F074
:10191000010F3BD0A74B9B6803F00C03042B2CD08A
:10192000A44B9B6803F00C03082B21D06368B3F52C
:10193000803F4FD0B3F5A02F52D09E4B1A6822F4AF
:1019400080321A601A6822F480221A606368002BC1
:1019500050D0FFF717FA0546964B1B6813F4003F6B
:1019600014D1FFF70FFA401B6428F5D903208AE150
:10197000904B5B6813F4800FD8D08E4B1B6813F428
:10198000003F03D06368002B00F07A81236813F0D6
:10199000020F55D0874B9B6813F00C0F3ED0854B40
:1019A0009B6803F00C03082B33D0E368002B68D04E
:1019B000814B01221A60FFF7E5F905467D4B1B6854
:1019C00013F0020F54D1FFF7DDF9401B0228F5D9BF
:1019D000032058E1774A136843F480331360B5E776
:1019E000744B1A6842F480221A601A6842F48032FA
:1019F0001A60ABE7FFF7C6F905466E4B1B6813F498
:101A0000003FC3D0FFF7BEF9401B6428F5D903207F
:101A100039E1684B5B6813F4800FC6D1654B1B68D6
:101A200013F0020F04D0E368012B01D001202AE15A
:101A3000604A136823F0F803216943EAC103136085
:101A4000236813F0080F40D0636963B35B4B012236
:101A50001A60FFF797F90546564B5B6F13F0020FBC
:101A600033D1FFF78FF9401B0228F5D903200AE193
:101A7000504A136823F0F803216943EAC103136055
:101A8000DEE74D4B00221A60FFF77CF90546494B13
:101A90001B6813F0020FD3D0FFF774F9401B022824
:101AA000F5D90320EFE0454B00221A60FFF76AF9F1
:101AB0000546404B5B6F13F0020F06D0FFF762F94B
:101AC000401B0228F5D90320DDE0236813F0040F42
:101AD00079D0384B1B6C13F0805F33D10023019316
:101AE000344B1A6C42F080521A641B6C03F0805322
:101AF0000193019B0125324B1B6813F4807F23D097
:101B0000A368012B34D0052B38D02A4B1A6F22F052
:101B100001021A671A6F22F004021A67A368002BE9
:101B200036D0FFF72FF90646224B1B6F13F0020F3A
:101B300048D1FFF727F9801B41F288339842F3D947
:101B40000320A0E00025D6E71D4A136843F4807304
:101B50001360FFF717F90646194B1B6813F4807FD3
:101B6000CED1FFF70FF9801B0228F5D903208AE0B8
:101B7000104A136F43F001031367CFE70D4B1A6F41
:101B800042F004021A671A6F42F001021A67C5E7B1
:101B9000FFF7F8F80646074B1B6F13F0020F11D042
:101BA000FFF7F0F8801B41F288339842F3D9032005
:101BB00069E000BF0038024000004742800E474203
:101BC00000700040E5B9A369002B5BD0304A9268F1
:101BD00002F00C02082A58D0022B17D02D4B0022FD
:101BE0001A60FFF7CFF80446294B1B6813F0007FFB
:101BF00042D0FFF7C7F8001B0228F5D9032042E0C6
:101C0000234A136C23F080531364DCE7214B00223A
:101C10001A60FFF7B7F805461D4B1B6813F0007FED
:101C200006D0FFF7AFF8401B0228F5D903202AE0C1
:101C3000E369226A1343626A43EA8213A26A520882
:101C4000013A43EA0243E26A43EA0263104A5360FC
:101C5000104B01221A60FFF795F804460C4B1B68E5
:101C600013F0007F06D1FFF78DF8001B0228F5D98D
:101C7000032008E0002006E0002004E00120704777
:101C8000012000E0002002B070BD0120FBE700BF92
:101C90000038024060004742264B9B6803F00C036B
:101CA000042B44D0082B01D0234870472DE9F04B7A
:101CB000204B5A6802F03F025B6813F4800F13D088
:101CC0001C4B5968C1F3881100231C48A1FB00017B
:101CD000FEF7CCFE174B5B68C3F3014301335B0097
:101CE000B0FBF3F0BDE8F08B124B5B68C3F38813D5
:101CF0001E4600275C010025E41A65EB0705A901D3
:101D000041EA9461A001001B61EB0501CB0043EAAD
:101D10005073C400A01943EB07018B0243EA9053B0
:101D20008402204619460023FEF7A0FED2E70348AE
:101D3000704700BF003802400024F40040787D0165
:101D4000002800F09D8070B504464F4B1B6803F0DF
:101D50000F038B4209D2CBB24B4A1370136803F0C6
:101D60000F038B4201D0012070BD236813F0020FD6
:101D700017D013F0040F04D0444A936843F4E0539F
:101D80009360236813F0080F04D0404A936843F42B
:101D9000604393603D4A936823F0F003A0680343D7
:101DA00093600D46236813F0010F32D06368012B56
:101DB00021D09A1E012A25D9344A126812F0020F46
:101DC00060D032498A6822F0030213438B60FEF729
:101DD000D9FF06462D4B9B6803F00C036268B3EBFA
:101DE000820F16D0FEF7CEFF801B41F28833984257
:101DF000F0D90320B8E7254A126812F4003FE0D179
:101E00000120B1E7214A126812F0007FD9D10120E8
:101E1000AAE71D4B1B6803F00F03AB4209D9EAB2D6
:101E2000194B1A701B6803F00F03AB4201D001205D
:101E30009AE7236813F0040F06D0144A936823F43A
:101E4000E053E1680B439360236813F0080F07D059
:101E50000E4A936823F46043216943EAC103936007
:101E6000FFF71AFF094B9B68C3F30313084AD35CBF
:101E7000D840084B1860002003F0CAF8002073E730
:101E80000120704701206FE7003C0240003802400B
:101E9000D45500080C000020014B1868704700BFA3
:101EA0000C00002008B5FFF7F7FF044B9B68C3F355
:101EB0008223034AD35CD84008BD00BF00380240EB
:101EC000E455000808B5FFF7E7FF044B9B68C3F330
:101ED0004233034AD35CD84008BD00BF00380240FB
:101EE000E45500080F2303600B4B9A6802F00302CD
:101EF00042609A6802F0F00282609A6802F4E0524E
:101F0000C2609B68DB0803F4E0530361034B1B686A
:101F100003F00F030B60704700380240003C0240A2
:101F200070470268D36843F00103D3600268936886
:101F300003F00703062B03D0136843F0010313607B
:101F400000207047704770477047704710B50446CF
:101F500003681A6912F0020F11D0DA6812F0020F4A
:101F60000DD06FF002021A610123037703689B69A9
:101F700013F0030F70D0FFF7E6FF002323772368E9
:101F80001A6912F0040F12D0DA6812F0040F0ED0A2
:101F90006FF004021A610223237723689B6913F40C
:101FA000407F5FD02046FFF7CEFF002323772368D2
:101FB0001A6912F0080F12D0DA6812F0080F0ED06A
:101FC0006FF008021A61042323772368DB6913F09A
:101FD000030F4ED02046FFF7B6FF00232377236878
:101FE0001A6912F0100F12D0DA6812F0100F0ED02A
:101FF0006FF010021A61082323772368DB6913F45A
:10200000407F3DD02046FFF79EFF002323772368C3
:102010001A6912F0010F03D0DA6812F0010F36D1FD
:1020200023681A6912F0800F03D0DA6812F0800F6B
:1020300034D123681A6912F0400F03D0DA6812F025
:10204000400F32D123681A6912F0200F03D0DA68EA
:1020500012F0200F30D110BDFFF774FF2046FFF7BC
:1020600073FF8AE72046FFF76DFF2046FFF76CFFFE
:102070009BE72046FFF766FF2046FFF765FFACE7CA
:102080002046FFF75FFF2046FFF75EFFBDE76FF0DA
:1020900001021A61204603F091F8C1E76FF0800257
:1020A0001A61204600F08EF8C3E76FF040021A6113
:1020B0002046FFF74AFFC5E76FF020021A6120466D
:1020C00000F07FF8C7E700000368304A904212D062
:1020D000B0F1804F0FD0A2F57C4290420BD002F5B8
:1020E0008062904207D002F58062904203D002F5F0
:1020F0007842904203D123F070034A681343234A85
:1021000090422AD0B0F1804F27D0A2F57C42904275
:1021100023D002F5806290421FD002F58062904287
:102120001BD002F57842904217D002F570529042CF
:1021300013D002F5806290420FD002F58062904287
:102140000BD0A2F59832904207D002F580629042FF
:1021500003D002F58062904203D123F44073CA6831
:10216000134323F080034A69134303608B68C362FF
:102170000B688362054B984203D003F58063984255
:1021800001D10B69036301234361704700000140E3
:10219000A8B110B5044690F83D305BB1022384F835
:1021A0003D30211D2068FFF78FFF012384F83D306B
:1021B000002010BD80F83C30FFF7B2FEEEE70120B2
:1021C0007047704770470268D36823F0C003D3603C
:1021D000202380F8393070470268D36823F4907365
:1021E000D3600268536923F001035361202380F810
:1021F0003A30704790F83930DBB2212B2AD183680E
:10220000B3F5805F16D0036A5A1C02621A7803681D
:102210005A60C38C013B9BB2C384EBB90268D3689C
:1022200023F08003D3600268D36843F04003D36097
:1022300000207047036A1B880268C3F308035360D9
:1022400003691BB9036A02330362E2E7036A0133DD
:102250000362DEE702207047002070472DE9F84353
:1022600004460268136923F44053C1680B431361A9
:1022700083680269134342691343C2691A430168C0
:10228000CB6823F4164323F00C031343CB6002689E
:10229000536923F4407381690B435361C369B3F5F8
:1022A000004F60D00368B84A934200F0148102F5F1
:1022B0008062934200F00F81FFF7F4FD00EB800095
:1022C00000EB80006568AD00B0FBF5F5AF4FA7FBF4
:1022D00005356D092E01FFF7E5FD00EB800000EBF1
:1022E00080006568AD00B0FBF5F9FFF7DBFD00EBA2
:1022F000800000EB80006568AD00B0FBF5F5A7FB42
:1023000005356D094FF0640808FB15952D01323530
:10231000A7FB05356D0905F0F0053544FFF7C2FD53
:1023200000EB800000EB80006668B600B0FBF6F6BC
:10233000FFF7B8FD00EB800000EB800063689B00B6
:10234000B0FBF3F0A7FB0030400908FB10684FEA30
:10235000081808F13208A7FB0837C7F343172368AA
:102360002F449F600DE10368874A93425BD002F5DA
:102370008062934257D0FFF795FD00EB800000EBA1
:10238000800065686D00B0FBF5F5804FA7FB053553
:102390006D092E01FFF786FD00EB800000EB800049
:1023A00065686D00B0FBF5F9FFF77CFD00EB800080
:1023B00000EB800065686D00B0FBF5F5A7FB053507
:1023C0006D094FF0640808FB1595ED003235A7FB49
:1023D00005356D096D0005F4F8753544FFF762FDAC
:1023E00000EB800000EB800066687600B0FBF6F63C
:1023F000FFF758FD00EB800000EB800063685B0096
:10240000B0FBF3F3A7FB03235B0908FB13684FEA58
:10241000C80808F13208A7FB0837C7F3421723683A
:102420002F449F60ADE0FFF74DFD00EB800000EB17
:10243000800065686D00B0FBF5F5544FA7FB0535CE
:102440006D092E01FFF73EFD00EB800000EB8000E0
:1024500065686D00B0FBF5F9FFF734FD00EB800017
:1024600000EB800065686D00B0FBF5F5A7FB053556
:102470006D094FF0640808FB1595ED003235A7FB98
:1024800005356D096D0005F4F8753544FFF71AFD43
:1024900000EB800000EB800066687600B0FBF6F68B
:1024A000FFF710FD00EB800000EB800063685B002D
:1024B000B0FBF3F3A7FB03235B0908FB13684FEAA8
:1024C000C80808F13208A7FB0837C7F3421723688A
:1024D0002F449F6055E0FFF7F5FC00EB800000EB18
:1024E00080006568AD00B0FBF5F5284FA7FB05350A
:1024F0006D092E01FFF7E6FC00EB800000EB800089
:102500006568AD00B0FBF5F9FFF7DCFC00EB80007F
:1025100000EB80006568AD00B0FBF5F5A7FB053565
:102520006D094FF0640808FB15952D013235A7FBA6
:1025300005356D0905F0F0053544FFF7C3FC00EBE8
:10254000800000EB80006668B600B0FBF6F6FFF78F
:10255000B9FC00EB800000EB800063689B00B0FBDF
:10256000F3F0A7FB0030400908FB10684FEA081899
:1025700008F13208A7FB0837C7F3431723682F4435
:102580009F60BDE8F88300BF001001401F85EB513C
:1025900058B310B5044690F839300BB3242384F8AF
:1025A00039302268D36823F40053D3602046FFF704
:1025B00055FE2268136923F490431361226853691E
:1025C00023F02A0353612268D36843F40053D36095
:1025D0000020E063202384F8393084F83A3010BDBD
:1025E00080F8383002F04CFED8E701207047000038
:1025F00038B590F83940E4B2202C31D1002931D0DF
:10260000002A31D090F83830012B2FD013460446E1
:10261000012280F8382001628384C3840025C563C9
:10262000212280F83920026B1148D063226B1148B7
:102630001064226B1048D064226B15652268043246
:10264000206BFEF7C9FC23686FF040021A6084F823
:1026500038502268536943F080035361284600E0F4
:10266000022038BD0120FCE70120FAE70220F8E74C
:102670008B270008D7270008C928000830B583B089
:1026800090F83A40E4B2202C3DD100293ED0002AF7
:102690003ED090F83830012B3CD013460A46044611
:1026A000012180F83810826283850025C5632221CC
:1026B00080F83A10416B1848C863616B174808648A
:1026C000616B1748C864616B0D6521680431606BEC
:1026D000FEF782FC019523681A6801925A680192FC
:1026E000019A84F83850DA6842F48072DA6022681D
:1026F000536943F0010353612268536943F0400377
:102700005361284600E0022003B030BD0120FBE702
:102710000120F9E70220F7E7E1270008BD280008BB
:10272000C928000810B5044601684A6990F8393094
:10273000DBB2212B0AD021684A6902F0400294F8EA
:102740003A30DBB2222B11D0002010BD02F0800203
:10275000002AF0D04B6923F080034B61006B08B175
:10276000FEF774FC2046FFF72EFDE4E7002AEBD0CD
:102770004B6923F040034B61606B08B1FEF766FCC8
:102780002046FFF729FDDFE7704708B5836B026835
:10279000126812F4807F0CD10022DA8419684A6929
:1027A00022F080024A611A68D36843F04003D36084
:1027B00008BD1846FFF7E8FFFAE708B50168CB68DF
:1027C00023F04003CB60202380F83930FFF7DCFF93
:1027D000002008BD704708B5806BFFF7FBFF08BD00
:1027E00008B5836B0268126812F4807F13D100224F
:1027F000DA851968CA6822F48072CA6019684A6961
:1028000022F001024A6119684A6922F040024A61D5
:10281000202283F83A20184602F048FC08BD08B58B
:1028200090F83A30DBB2222B45D18368B3F5805F54
:102830000ED0036903BB03685A68836A591C81621E
:102840001A70C38D013B9BB2C385F3B1002033E006
:10285000826A036943B903685B68C3F308031380A2
:10286000836A02338362ECE703685B68DBB2138040
:10287000836A01338362E4E703685B68826A511C00
:10288000816203F07F031370DBE70268D36823F0F3
:102890002003D3600268D36823F48073D360026896
:1028A000536923F001035361202380F83A3002F08A
:1028B000FDFB002000E0022008BD704708B5806BDA
:1028C000FFF7FBFF08BD704710B5846B23685A699A
:1028D00094F83930DBB2212B10D023685A6902F00A
:1028E000400294F83A30DBB2222B11D0E36B43F074
:1028F0001003E3632046FFF7E6FF10BD02F08002FD
:10290000002AEAD00023E3842046FFF75CFCE4E7DA
:10291000002AEBD00023E3852046FFF75DFCE5E7C6
:1029200010B5044602681368D168526913F00F00AD
:1029300005D113F0200F02D011F0200F53D1002841
:1029400067D012F0010202D111F4907F61D013F030
:10295000010F06D011F4807F03D0E06B40F001003E
:10296000E06313F0040F04D01AB1E06B40F00200F2
:10297000E06313F0020F04D01AB1E06B40F00400E2
:10298000E06313F0080F04D01AB1E26B42F00802C2
:10299000E263E26B002A48D013F0200F02D011F05E
:1029A000200F24D123685B6903F04003E26B12F02F
:1029B000080F00D13BB32046FFF70EFC23685A698D
:1029C00012F0400F1BD05A6922F040025A61636B2B
:1029D0008BB11A4A1A65606BFEF782FB28B3606BF5
:1029E000036D984721E02046FFF719FF1DE02046C0
:1029F000FFF715FFD6E72046FFF765FF15E02046F5
:102A0000FFF761FF11E02046FFF75DFF0023E3635E
:102A10000BE013F0800F02D011F0800F06D113F0FD
:102A2000400F02D011F0400F04D110BD2046FFF737
:102A3000E1FBFAE72046FFF7C0FEF6E7412A00086F
:102A400008B5806B0023C385C384FFF73CFF08BD36
:102A5000842801D0033070470020704708B500F08B
:102A600013FD002008BD2DE9F04387B004460F4652
:102A70004569A5B1866996B1D0F80480D0F8009078
:102A8000B0F90800FFF7E4FF226902960195009073
:102A90003B464946404600F08BFC059013E06568D4
:102AA0002668D4F81080B4F90800FFF7D1FF05AB11
:102AB000019300903B461FFA88F23146284600F009
:102AC000B0FC012803D1059807B0BDE8F0830020D1
:102AD000FAE708B5034600B90123184600F014FED2
:102AE000002008BD00F1080343604FF0FF32826010
:102AF000C3600361002303607047002303617047D4
:102B000043684B609A688A609A685160996008616E
:102B1000036801330360704730B40D68B5F1FF3FBF
:102B200002D000F1080202E0026904E01A4653688C
:102B30001C68AC42FAD953684B6099608A60516056
:102B4000086103680133036030BC70470369426861
:102B5000816891608268416851605A68824206D0FB
:102B6000002202611A68013A1A6018687047826888
:102B70005A60F5E7436A23B1036B1868C0F1070098
:102B800070470020704710B5044601F07BF8A26B37
:102B9000E36B9A4204D0002401F096F8204610BD61
:102BA0000124F9E710B5044601F06CF8A36B23B1DA
:102BB000002401F089F8204610BD0124F9E770B522
:102BC00004461646856B026C5AB903681BB1002097
:102BD0000135A56370BD406800F024FF00236360E9
:102BE000F6E76EB9806802F019FC226CA368134402
:102BF000A3606268934219D32368A3600020E7E7CB
:102C0000C06802F00BFC226C5242E3681344E3609C
:102C100021688B4202D263681A44E260022E01D01E
:102C20000020D5E725B1013D0020D1E70020CFE706
:102C30000020CDE738B5054601F024F895F8454069
:102C400064B203E000F074FE013C64B2002C08DDC5
:102C50006B6A33B105F1240000F0DEFD0028F3D0EB
:102C6000F0E7FF2385F8453001F02EF801F00AF86F
:102C700095F8444064B203E000F05AFE013C64B2AF
:102C8000002C08DD2B6933B105F1100000F0C4FD04
:102C90000028F3D0F0E7FF2385F8443001F014F862
:102CA00038BD000038B540B94FF0500383F31188A8
:102CB000BFF36F8FBFF34F8FFEE704460D4600F062
:102CC000E1FF2168E26B236C03FB021060600020CF
:102CD000A063A160013A02FB0313E360FF2384F8C1
:102CE000443084F84530A5B923691BB900F0ECFFE6
:102CF000012038BD04F1100000F08EFD0028F5D051
:102D0000084B4FF080521A60BFF34F8FBFF36F8FA5
:102D1000ECE704F11000FFF7E5FE04F12400FFF7F3
:102D2000E1FEE3E704ED00E010B5029B0C4639B18B
:102D30001A60D8631C6401211846FFF7B3FF10BD69
:102D40001B60F6E740B94FF0500383F31188BFF3DF
:102D50006F8FBFF34F8FFEE7F0B583B0064611B11A
:102D600001FB00F000E0002017460C46483001F05F
:102D7000FFF8054650B1002380F8463000903B46EE
:102D800000F1480221463046FFF7CEFF284603B047
:102D9000F0BD0000F0B585B0019260B1044699B96C
:102DA000026C8AB14FF0500383F31188BFF36F8F29
:102DB000BFF34F8FFEE74FF0500383F31188BFF34B
:102DC0006F8FBFF34F8FFEE7022B0BD1E26B012A0F
:102DD00008D04FF0500383F31188BFF36F8FBFF318
:102DE0004F8FFEE71E460F4600F0AAFD50B9019B2B
:102DF00053B14FF0500383F31188BFF36F8FBFF3CC
:102E00004F8FFEE700253AE0002538E0324639468C
:102E10002046FFF7D4FE636A4BB9A8B13B4B4FF095
:102E200080521A60BFF34F8FBFF36F8F0CE004F135
:102E3000240000F0F1FC38B1344B4FF080521A609E
:102E4000BFF34F8FBFF36F8F00F03EFF012005B03F
:102E5000F0BD00F039FF0020F9E702A800F01EFDE8
:102E6000012519E0002384F8443021E0002384F890
:102E7000453023E02046FFF7DDFE00F0CDFB00F0FB
:102E800001FFA26BE36B9A42C0D3022EBED0019B1E
:102E9000002BDED0002DE0D000F016FF00F026FB66
:102EA00000F0F0FE94F844305BB2B3F1FF3FD9D0AC
:102EB00094F845305BB2B3F1FF3FD7D000F004FF88
:102EC00001A902A800F0F4FCC8B92046FFF75BFE98
:102ED0000028CFD0019904F1100000F083FC2046B7
:102EE000FFF7A8FE00F098FB0028C8D1074B4FF071
:102EF00080521A60BFF34F8FBFF36F8FBFE720463A
:102F0000FFF798FE00F088FB0020A0E704ED00E04A
:102F100048B108B5002141600160C1600B460A4616
:102F2000FFF738FF08BD704710B5024600210120A9
:102F3000FFF708FF0446FFF7EBFF204610BD000037
:102F400070B584B0019140B94FF0500383F31188FC
:102F5000BFF36F8FBFF34F8FFEE70446036C43B19F
:102F60004FF0500383F31188BFF36F8FBFF34F8F80
:102F7000FEE700F0E5FC50B9019B5BB14FF0500358
:102F800083F31188BFF36F8FBFF34F8FFEE70025E8
:102F90002E4651E000252E464EE0013BA3632368F8
:102FA00013B900F0F9FD6060236963B104F110000A
:102FB00000F032FC38B1484B4FF080521A60BFF33A
:102FC0004F8FBFF36F8F00F07FFE0125284604B0BE
:102FD00070BD45B14FF0500383F31188BFF36F8F7D
:102FE000BFF34F8FFEE700F06FFEEFE702A800F09F
:102FF00055FC01262AE0002384F8443032E0002307
:1030000084F8453034E000F03DFE606800F0A8FC34
:10301000054600F059FE3BE02046FFF70BFE00F0AE
:10302000FBFA09E02046FFF705FE00F0F5FA20461E
:10303000FFF7B8FD002840D100F024FEA36B002B61
:10304000ABD1019B002BC4D0002ECFD000F03CFEB2
:1030500000F04CFA00F016FE94F844305BB2B3F185
:10306000FF3FC8D094F845305BB2B3F1FF3FC6D004
:1030700000F02AFE01A902A800F01AFC0028D1D114
:103080002046FFF78FFD0028C6D02368002BBAD05A
:10309000019904F1240000F0A5FB2046FFF7CAFDCA
:1030A00000F0BAFA0028C7D10B4B4FF080521A60DB
:1030B000BFF34F8FBFF36F8FBEE7002D86D000F0B8
:1030C000E1FD2046FFF756FD0146606800F002FD75
:1030D00000F0FAFD002579E704ED00E0074B9B6A5C
:1030E0001B6833B1054B9A6AD268D2685268DA62BB
:1030F0007047024B4FF0FF32DA6270472C0000201D
:103100002DE9F04780469946089D099F0A9C266B49
:1031100002F18042013A06EB820626F00706002300
:103120000F2B07D8C85CE21882F83400CA5C0AB1D9
:103130000133F5E7002384F84330062D00D9062536
:10314000E56265644FF0000AC4F848A0201DFFF74F
:10315000D4FC04F11800FFF7D0FC2461C5F1070589
:10316000A5616462C4F84CA084F850A04A46414668
:10317000304600F05FFD206007B13C60BDE8F0879D
:1031800070B5002407E004EB840293001048184453
:10319000FFF7A8FC0134062CF5D90E4C04F1BC064F
:1031A0003046FFF79FFC04F1D0052846FFF79AFC54
:1031B00004F11400FFF796FC04F1E400FFF792FC21
:1031C0002046FFF78FFCA662C4F8F85070BD00BF20
:1031D0005C0000202C00002038B5054600F052FDB0
:1031E000264BD3F8FC200132C3F8FC20D3F8003181
:1031F00073B1224BD3F804318BB9204BD3F8003193
:10320000DA6AEB6A9A420AD81C4BC3F8005106E00E
:103210001A4BC3F80051D3F8FC30012B2AD0174CBD
:10322000D4F808310133C4F80831EB6A01229A401E
:10323000D4F80C110A43C4F80C2104F1300003EB5C
:1032400083039A00291D1044FFF75AFC00F03CFD4F
:10325000D4F804316BB1D4F80031DA6AEB6A9A42DF
:1032600007D2074B4FF080521A60BFF34F8FBFF366
:103270006F8F38BDFFF784FFD1E700BF2C0000201F
:1032800004ED00E010B5044690F8513033B9006BFE
:1032900000F0E8FE204600F0E5FE10BD012B0AD04C
:1032A000022BFAD04FF0500383F31188BFF36F8FD6
:1032B000BFF34F8FFEE700F0D5FEEEE738B517E01D
:1032C00000F0E0FC0D4CD4F8F030DD68281DFFF76D
:1032D0003DFCD4F8FC30013BC4F8FC30D4F810318C
:1032E000013BC4F8103100F0EFFC2846FFF7CAFF9D
:1032F000024BD3F81031002BE2D138BD2C00002056
:1033000008B5FFF7DBFF064B1B6B012BF9D9054B0B
:103310004FF080521A60BFF34F8FBFF36F8FF0E70B
:103320002C00002004ED00E070B504460E461F4B53
:10333000D3F81451D3F800010430FFF707FC60B94B
:103340001A4BD3F80021D16A012202FA01F1D3F815
:103350000C2122EA0102C3F80C21B4F1FF3F12D084
:103360002C44124BD3F800315C60A54214D80F4DA9
:10337000A86AD5F800110431FFF7CEFBEB6AA3422F
:1033800012D9EC6210E0002EEAD00848D0F8001103
:103390000431FFF7B5FB07E0044BD3F8F800D3F88E
:1033A00000110431FFF7B8FB70BD00BF2C000020F6
:1033B00070B586B00B9D0C9C45B94FF0500383F35C
:1033C0001188BFF36F8FBFF34F8FFEE744B94FF003
:1033D000500383F31188BFF36F8FBFF34F8FFEE766
:1033E00054260496049E542E08D04FF0500383F3C5
:1033F0001188BFF36F8FBFF34F8FFEE72563022560
:1034000084F8515000250395029405AD01950A9D5D
:103410000095FFF775FE2046FFF7DEFE059806B023
:1034200070BD2DE9F04385B007468846154699469C
:10343000900000F09DFD08B30646542000F098FD72
:103440000446B8B10663E4B1002384F85130039315
:1034500002940D9B01930C9B00934B462A464146D8
:103460003846FFF74DFE2046FFF7B6FE012005B0B7
:10347000BDE8F083304600F0F5FDE4E74FF0FF30A3
:10348000F5E74FF0FF30F2E710B588B0002405945F
:10349000069407AA06A905A801F088FA059B0293DD
:1034A000069B019300942346079A0D490D48FFF7A8
:1034B0007FFF08B908B010BD4FF0500383F31188A7
:1034C000BFF36F8FBFF34F8F074B4FF0FF32DA62BE
:1034D0000122C3F80421C3F8144100F075FCE9E7A8
:1034E000EC550008013300082C000020034AD2F8F4
:1034F00018310133C2F81831704700BF2C0000208A
:10350000014BD3F8140170472C0000202DE9F04145
:10351000404BD3F81831002B6CD13E4BD3F81451EB
:103520000135C3F81451CDB99B6A1B6843B14FF004
:10353000500383F31188BFF36F8FBFF34F8FFEE704
:10354000344B9A6AD3F8F8109962C3F8F820D3F88C
:103550001C210132C3F81C21FFF7C0FD2D4BDB6A93
:10356000AB423DD900242B4AD2F80031DB6A03EB91
:10357000830399000A44136B012B42D9012440E0D4
:103580000124244B9B6A1B6863B3224B9B6ADB6854
:10359000DE6873689D422AD306F104084046FFF7AF
:1035A000D5FAB36A1BB106F11800FFF7CFFAF36A38
:1035B00001229A40174FD7F80C110A43C7F80C2183
:1035C00007F1300003EB83039A0041461044FFF7F4
:1035D00097FAF26AD7F80031DB6A9A42D0D2D0E784
:1035E0000024CEE70B4B4FF0FF32DA62BBE7094A0B
:1035F000D362B8E7074AD2F820310133C2F820314C
:103600000024044BD3F8243103B101242046BDE843
:10361000F08100BF2C000020394BD3F8183143B99A
:103620004FF0500383F31188BFF36F8FBFF34F8FB9
:10363000FEE770B500F026FB314BD3F81821013AB4
:10364000C3F81821D3F81831002B54D12C4BD3F8E0
:10365000FC3023B9002400F037FB204670BD002465
:10366000274B5B692BB3264D2B6ADC6804F11800ED
:10367000FFF76CFA261D3046FFF768FAE36A01226D
:103680009A40D5F80C110A43C5F80C2105F1300019
:1036900003EB83039A0031461044FFF731FAE26AE4
:1036A000D5F80031DB6A9A42DAD30122C5F8242129
:1036B000D6E70CB1FFF712FD114BD3F8204164B1EE
:1036C000FFF724FF18B10E4B0122C3F82421013C5F
:1036D000F6D10B4B0022C3F82021094BD3F824313B
:1036E0005BB1084B4FF080521A60BFF34F8FBFF3AE
:1036F0006F8F0124AFE70024ADE70024ABE700BFE4
:103700002C00002004ED00E010B5B0B104460F4BD2
:10371000D3F8183143B14FF0500383F31188BFF34E
:103720006F8FBFF34F8FFEE7FFF7E0FE00212046CB
:10373000FFF7FAFDFFF770FF38B9054B4FF08052E5
:103740001A60BFF34F8FBFF36F8F10BD2C000020A6
:1037500004ED00E0224BD3F8183123B1204B0122B5
:10376000C3F8242170471E4A0023C2F82431D2F83E
:103770000C31B3FA83F3DBB2C3F11F0303EB830015
:1037800081000A44126B42B94FF0500383F3118851
:10379000BFF36F8FBFF34F8FFEE710B4104A99004D
:1037A000CC18A0001044446B646844633032194460
:1037B00088000830024494420BD0094903EB83038C
:1037C0009A000A44536BDB68C1F800315DF8044B82
:1037D000704761680248142202FB03025163ECE760
:1037E0002C00002040B94FF0500383F31188BFF341
:1037F0006F8FBFF34F8FFEE710B50C46054BD3F824
:1038000000111831FFF788F901212046FFF78CFDE0
:1038100010BD00BF2C00002038B5C368DC6844B977
:103820004FF0500383F31188BFF36F8FBFF34F8FB7
:10383000FEE704F118052846FFF788F9154BD3F881
:10384000183103BB251D2846FFF780F9E36A0121E3
:103850009940104AD2F80C010143C2F80C113032E1
:1038600003EB8303980029461044FFF749F9E26A05
:10387000084BD3F80031DB6A9A4209D90120054B85
:10388000C3F8240138BD29460348FFF739F9EEE7AC
:103890000020F7E72C00002040000020034BD3F865
:1038A0001C210260D3F81431436070472C000020C3
:1038B000F8B550B1054689B94FF0500383F311882C
:1038C000BFF36F8FBFF34F8FFEE74FF0500383F3CB
:1038D0001188BFF36F8FBFF34F8FFEE70C4600F0E8
:1038E000D1F9124BD3F8141168680A1A2368B3F19E
:1038F000FF3F17D02F680D4ED6F81C61B74201D09C
:10390000884211D9934203D800232360012405E0A3
:103910009B1A23602846FFF7C1FF002400F0D4F96A
:103920002046F8BD0024F9E70124F7E72C00002029
:10393000024B0122C3F82421704700BF2C00002055
:10394000064BD3F804313BB1044BD3F818310BB11B
:103950000020704702207047012070472C00002093
:10396000002859D038B50446C26A2C49D1F8001154
:10397000C96A8A4245D28169002906DB2749D1F804
:103980000011C96AC1F107018161606902EB82021D
:103990009100234A0A44904206D0204AD2F80021DE
:1039A000D26AE262012038BD251D2846FFF7CEF815
:1039B00080B9E26A02EB82039900184B0B441B6B3F
:1039C00043B9012393401549D1F80C2122EA03029F
:1039D000C1F80C211148D0F80031DB6AE362012400
:1039E00004FA03F2D0F80C110A43C0F80C2130306D
:1039F00003EB83039A0029461044FFF781F8204621
:103A0000D1E7426C054BD3F80031DB6A9A4201D210
:103A10000120C8E70020C6E7002070472C000020E6
:103A20005C00002000284DD038B50446284AD2F862
:103A30000021824208D04FF0500383F31188BFF376
:103A40006F8FBFF34F8FFEE7826C42B94FF0500388
:103A500083F31188BFF36F8FBFF34F8FFEE7013AF7
:103A60008264C06A616C88422ED07ABB251D2846CC
:103A7000FFF76CF878B9E26A1549142303FB0213C7
:103A80001B6B43B9012303FA02F2D1F80C3123EA8C
:103A90000203C1F80C31626CE262C2F10703A36158
:103AA000012404FA02F10A4BD3F80C010143C3F8D4
:103AB0000C1130332946142000FB0230FFF720F8A8
:103AC000204638BD002070470020FAE70020F8E7C4
:103AD0002C000020002859D038B50346806C40B92E
:103AE0004FF0500383F31188BFF36F8FBFF34F8FF5
:103AF000FEE75A6C8A4200D20A46D96A914201D046
:103B0000012800D038BD2248D0F80001984208D1E1
:103B10004FF0500383F31188BFF36F8FBFF34F8FC4
:103B2000FEE7DA629869002802DBC2F107029A61B7
:103B30005A691848142404FB01018A42E2D11C4648
:103B40001D1D2846FFF702F878B9E26A10491423D0
:103B500003FB02131B6B43B9012303FA02F2D1F8F2
:103B60000C3123EA0203C1F80C31E06A01228240E1
:103B7000074BD3F80C110A43C3F80C213033294604
:103B8000142202FB0030FEF7BBFFBBE7704700BF0B
:103B90002C0000205C000020064BD3F800312BB134
:103BA000044BD3F80021936C01339364014BD3F899
:103BB000000170472C00002082B0002301930D4BC0
:103BC0001B68B3F1FF3F08D04FF0500383F3118817
:103BD000BFF36F8FBFF34F8FFEE74FF0500383F3B8
:103BE0001188BFF36F8FBFF34F8F019B002BFCD069
:103BF00002B070470800002008480068006880F3A1
:103C000008884FF0000080F3148862B661B6BFF3F5
:103C10004F8FBFF36F8F00DF00BF000008ED00E0A3
:103C2000DFF80C00016841F470010160704700008A
:103C300088ED00E04FF0807340F8043C21F0010172
:103C400040F8081C054B40F80C3C40F8202C6FF065
:103C5000020340F8243C4438704700BFB93B0008D9
:103C6000074B19680868B0E8F04F80F30988BFF384
:103C70006F8F4FF0000080F311887047AFF3008022
:103C80002C0100204FF0500383F31188BFF36F8F96
:103C9000BFF34F8F0A4A136801331360012B00D022
:103CA0007047084B1B6813F0FF0FF9D04FF050031B
:103CB00083F31188BFF36F8FBFF34F8FFEE700BF11
:103CC0000800002004ED00E0094B1B6843B94FF0E9
:103CD000500383F31188BFF36F8FBFF34F8FFEE75D
:103CE000013B034A13600BB983F31188704700BF8F
:103CF000080000200000000000000000000000009C
:103D0000EFF30980BFF36F8F154B1A681EF0100F89
:103D100008BF20ED108A20E9F04F10602DE909005E
:103D20004FF0500080F31188BFF34F8FBFF36F8FB8
:103D3000FFF710FD4FF0000080F3118809BC1968EF
:103D40000868B0E8F04F1EF0100F08BFB0EC108A02
:103D500080F30988BFF36F8F704700BFAFF3008017
:103D60002C01002008B54FF0500383F31188BFF3F6
:103D70006F8FBFF34F8FFFF7C9FB18B1034B4FF0A5
:103D800080521A60002383F3118808BD04ED00E01F
:103D9000084A0023136008490B60084B1B68084958
:103DA000A1FB03139B09013B06490B60072313602A
:103DB000704700BF10E000E018E000E00C000020B9
:103DC000D34D621014E000E0394B1A68394B9A4227
:103DD0000DD0374B1A68384B9A4211D14FF050032F
:103DE00083F31188BFF36F8FBFF34F8FFEE74FF060
:103DF000500383F31188BFF36F8FBFF34F8FFEE73C
:103E000010B582B02D4B1A78D2B20192FF221A70EF
:103E10001B78DBB28DF803309DF8033003F05003BC
:103E2000274A13700723536009E0254A5368013B72
:103E300053609DF803305B00DBB28DF803309DF8D2
:103E4000033013F0800FF0D11D4B5B68032B08D0BB
:103E50004FF0500383F31188BFF36F8FBFF34F8F81
:103E6000FEE71B0203F4E063154A5360019BDBB2DB
:103E7000124A1370134B1A6842F470021A601A68DF
:103E800042F070421A60FFF783FF00240E4B1C6063
:103E9000FFF7C6FE0D4A136843F040431360FFF777
:103EA000ABFEFFF757FCFFF787FE204602B010BDC0
:103EB00000ED00E071C20F4170C20F4100E400E06C
:103EC0005401002020ED00E00800002034EF00E065
:103ED000104A12F0070F1AD0D11D21F00701C1F5C9
:103EE000705313440A460C490A600020486013448A
:103EF000083B23F007038B6058601860981A5060E5
:103F00001360C86008614FF000434B6170474FF485
:103F10007053E8E7740100205C01002010B4134BDB
:103F20001A6882421BD359685C18844203D14068E6
:103F300001445960184641684418A24213D10B4C01
:103F4000A468A2420DD05268114441601A681268F8
:103F50000260984200D018605DF8044B7047134629
:103F6000DEE70460F5E70260F3E700BF5C010020D4
:103F700070B50446FFF7BAFA394B9B68BBB1384BB2
:103F80005B691C4262D1ACB1083414F0070F11D048
:103F900024F00704083404F007035BB14FF050032A
:103FA00083F31188BFF36F8FBFF34F8FFEE7FFF7E7
:103FB0008FFFE4E7002C4BD0294B1B69A34249D368
:103FC000274B1D6801E02B4615466A68A24202D2C3
:103FD0002A68002AF7D1224A9268AA423CD01E6879
:103FE00008362A681A606B681B1B102B10D9281919
:103FF00010F0070F08D04FF0500383F31188BFF380
:104000006F8FBFF34F8FFEE743606C60FFF786FF53
:104010006968134A13695B1A1361D268934201D22B
:104020000F4AD3600E4B5B690B436B6000232B6020
:10403000FFF7F2FA16F0070F10D04FF0500383F39A
:104040001188BFF36F8FBFF34F8FFEE70026EFE7B6
:104050000026EDE70026EBE70026E9E7304670BDD5
:104060005C01002080B338B50446A0F1080550F883
:10407000042C164949690A4208D14FF0500383F3D2
:104080001188BFF36F8FBFF34F8FFEE750F8080C16
:1040900040B14FF0500383F31188BFF36F8FBFF32C
:1040A0004F8FFEE722EA010244F8042CFFF71EFAC4
:1040B00054F8041C054A13690B4413612846FFF7A2
:1040C0002DFFFFF7A9FA38BD704700BF5C01002043
:1040D00008B50146014800F05BFF08BDA848002074
:1040E00010B582B0002401940D4B1A6B42F480028B
:1040F0001A631B6B03F480030193019B2246052185
:104100003A20FCF745FE3A20FCF776FE22460521D0
:104110004620FCF73DFE4620FCF76EFE02B010BDC7
:1041200000380240F0B589B03D20FFF7D1FFD22022
:10413000FFF7CEFFA620FFF7CBFF10B94FF07E5759
:1041400075E04FF0804772E00A78DCB2624082EAA4
:104150000212D2B21B0A43EA02231BB283EAC20351
:1041600083EA12139BB202460131501E80B2002A2C
:10417000EAD153480380C1788BB2083012E002784C
:104180004F4D2B88DEB2724082EA0212D2B21B0A75
:1041900043EA02231BB283EAC20383EA12132B8091
:1041A000013023465A1E94B2002BE8D1444C238898
:1041B000DAB282F0B90282EA0212D2B21B0A43EAF0
:1041C00002231BB283EAC20383EA12139BB2224684
:1041D00022F8083B53542188E3780133090A9954A3
:1041E000E278384D0632A11C284601F017F9E27832
:1041F000911D481923886B541B0A43700832D2B2B0
:10420000314B1A70083229463048FEF7F1F92F4B2E
:104210001B681B6813F0400FF9D000231A4619469B
:104220002B480068FEF7B6FD3220FEF752FC284B03
:1042300018680028F8D00A21FEF782FE0128F3D181
:10424000FFF75EF9FCF716F90022224BFCF7B6FAED
:10425000FCF7BCFB07EE900AFCEEE77ACDED017AA5
:1042600002974FF0804303931B4B049305934FF049
:1042700081430693194B0793194C01AD0FCD206074
:104280006160A260E36007CD20616161A2612023CB
:1042900004F8013CFE2304F8063C1C2304F8053C0A
:1042A000012304F8033C04F8023C0E4A937904F815
:1042B000043C013393714FF6FF730522611F54E7ED
:1042C0004444002098470020A4480020FC490020D6
:1042D0004044002000408F40000040400000A040CB
:1042E0004C440020743D002070B588B02EE10A785F
:1042F000DCB2624082EA0212D2B21B0A43EA022313
:104300001BB283EAC20383EA12139BB20446013153
:10431000621E90B2002CEAD19F480380C478A3B2F9
:10432000083012E002789C4D2B88DEB2724082EA9F
:104330000212D2B21B0A43EA02231BB283EAC2036F
:1043400083EA12132B8001300B46591E89B2002BD1
:10435000E8D1914D2B88DAB282F0DD0282EA0212B6
:10436000D2B21B0A43EA02231BB283EAC20383EAE6
:1043700012139BB22A4622F8083B13552988EB7882
:104380000133090A9954EA78844C0632A91C204664
:1043900001F044F8EA78911D08192B8863541B0A30
:1043A00043700832D2B27E4B1A70083221467D48E3
:1043B000FEF71EF97B4B1B681B6813F0400FF9D00A
:1043C000794B1868FCF778F80022784BFCF7CCF8AA
:1043D000FCF7DCFA00230093019302934FF4FA7286
:1043E000ADF80C20ADF80E004FF6FF74ADF810409C
:1043F000ADF81230ADF81430ADF81630ADF8183015
:10440000ADF81A30ADF81C308DF81E40684D6E4680
:104410000FCE28606960AA60EB6007CE28616961F1
:10442000AA613288B378AA83AB77012305F8013CEF
:10443000FE2205F8062C1F2205F8052C05F8033C82
:10444000C82305F8023C5B4A937905F8043C013324
:10445000937123460524691F10E00A78DCB262409C
:1044600082EA0212D2B21B0A43EA02231BB283EA97
:10447000C20383EA12139BB204460131621E90B25A
:10448000002CEAD144480380C478A3B2083012E07B
:104490000278414D2B88DEB2724082EA0212D2B21B
:1044A0001B0A43EA02231BB283EAC20383EA121304
:1044B0002B8001300B46591E89B2002BE8D1364DB6
:1044C0002B88DAB282F07C0282EA0212D2B21B0A94
:1044D00043EA02231BB283EAC20383EA12139BB2AC
:1044E0002A4622F8083B13552988EB780133090A3C
:1044F0009954EA78294C0632A91C204600F08EFF18
:10450000EA78911D08192B8863541B0A43700832FE
:10451000D2B2234B1A70083221462248FEF768F8BF
:10452000204B1B681B6813F0400FF9D04FF400516B
:104530002148FCF7CDFF00231A4619461F480068A2
:10454000FEF728FC4FF4FA70FEF7C3FA1B4B18680D
:104550000028F7D00A21FEF7F3FC0128F2D101234D
:10456000ADF800308DF802308DF803300A49009A1A
:104570008A602C22CA71FE228A700422CA704B7192
:104580008B710C4A93790B71013393714FF6FF7362
:1045900005240331BCE600BF4444002098470020B6
:1045A000A4480020FC4900203C44002000408F40EB
:1045B0004C440020743D002000180240404400207C
:1045C000F0B591B004238DF83F3076E00A78DCB284
:1045D000624082EA0212D2B21B0A43EA02231BB2F1
:1045E00083EAC20383EA12139BB204460131621EBE
:1045F00090B2002CEAD1BC480380C1788BB208305D
:1046000012E00278B84D2B88DEB2724082EA0212C4
:10461000D2B21B0A43EA02231BB283EAC20383EA33
:1046200012132B80013023465A1E94B2002BE8D17E
:10463000AD4C2388DAB282F0320282EA0212D2B2A0
:104640001B0A43EA02231BB283EAC20383EA121362
:104650009BB2224622F8083B53542188E378013369
:10466000090A9954E278A14D0632A11C284600F0AF
:10467000D5FEE278911D481923886B541B0A4370BC
:104680000832D2B29A4B1A70083229469948FDF77F
:10469000AFFF984B1B681B6813F0400FF9D09DF8D3
:1046A0003F50002D3CD100231A461946924800681D
:1046B000FEF770FB3220FEF70CFA8F4B18680028CB
:1046C000F8D00A21FEF73CFC0128F3D10024009425
:1046D00004238DF804308DF80540D8228DF806208B
:1046E0008DF8073003258DF80850844B6A4603CABD
:1046F000186059601D72A3F1080103F8014CFE23F4
:104700008B700923CB7001234B718B717C4A937999
:104710000B71013393714FF6FF730524294466E74B
:104720002846FBF7B7FEFCF751F9ABB20090ADF8A5
:104730000430ADF806308DF8185031230293002371
:104740000393049305936D4C6E460FCE2060616019
:10475000A260E36003CE206161612576A4F10801C7
:10476000162304F8013CFE2304F8063C192304F840
:10477000053C012304F8033C04F8023C604A9379A9
:1047800004F8043C013393714FF6FF7305240331A1
:1047900010E00A78DCB2624082EA0212D2B21B0A4E
:1047A00043EA02231BB283EAC20383EA12139BB2D9
:1047B00004460131621E90B2002CEAD14A480380BF
:1047C000C478A3B2083012E00278474D2B88DEB2DD
:1047D000724082EA0212D2B21B0A43EA02231BB2DF
:1047E00083EAC20383EA12132B8001300B46591E61
:1047F00089B2002BE8D13C4D2B88DAB282F0DC0282
:1048000082EA0212D2B21B0A43EA02231BB283EAF3
:10481000C20383EA12139BB22A4622F8083B1355BF
:104820002988EB780133090A9954EA782F4C06322B
:10483000A91C204600F0F2FDEB78991D08192A8882
:104840006254120A42700833DAB2294B1A700832E5
:1048500021462848FDF7CCFE264B1B681B6813F049
:10486000400FF9D001220023CDE90023CDE9022336
:1048700001230493059306930793ADF82030ADF818
:10488000223009AA10AB53F8010D596803C20BAAD4
:104890001868596803C20DAA1868596803C26D46A2
:1048A000164C0CAF2E460FCE20606160A260E36014
:1048B00035461034BE42F5D107CD20606160A2605C
:1048C000094C9423E371FE23A3703C23E37001237E
:1048D0006371A3710A4A93792371013393714FF67F
:1048E000FF73052003341EE0444400209847002055
:1048F000A4480020FC490020404400204C440020F3
:10490000743D00202278D8B2424082EA0212D2B22C
:104910001B0A43EA02231BB283EAC20383EA12138F
:104920009BB208460134421E91B20028EAD11E48CB
:104930000380C478A3B2083012E002781A4D2B88A5
:10494000DEB2724082EA0212D2B21B0A43EA0223AA
:104950001BB283EAC20383EA12132B8001300B4699
:10496000591E89B2002BE8D10F490B88DAB282F0C8
:10497000B20282EA0212D2B21B0A43EA02231BB23B
:1049800083EAC20383EA12139BB20A4622F8083B69
:1049900013550888CB780133010A99549DF83F30AC
:1049A000013B8DF83F307EE64444002010B4054BB7
:1049B00003F13004046084330B60802313605DF8DE
:1049C000044B7047743D0020F0B59DB0214C15ADEF
:1049D00026460FCE0FC596E8070085E807000021A0
:1049E00015A8FEF740F81C4F38600EAD04F11C0608
:1049F0000FCE0FC596E8070085E8070000210EA836
:104A0000FEF731F8386007AD04F138060FCE0FC558
:104A100096E8070085E80700002107A8FEF723F8BD
:104A200038606D4654340FCC0FC594E8070085E814
:104A3000070000216846FEF716F838600120FEF7EF
:104A400073FA064B186008B11DB0F0BD00F0D6FB3C
:104A5000FAE700BF64540008A0480020404400204A
:104A6000C82304E0034A0021D154013BDBB2002BF0
:104A7000F8D170476446002070B5FFF7F1FF79E187
:104A8000FE2E24D1C24B0222DA70002283F8872244
:104A900083F886624FF6FF72A3F8842217E0BC49C0
:104AA00081F8876200230B71B1F88432DAB2724068
:104AB00082EA0212D2B21B0A43EA02231BB283EA41
:104AC000C20383EA1213A1F884320423CB70B04BE3
:104AD0001B78012B00F00A81AD4B93F88712AD4A89
:104AE000D17000229A701B78022B00F00C81A84B29
:104AF0001B78022B00F013810134E4B2012B00F08B
:104B00002581FEF7FDFC401BB0F57A7F80F01E8109
:104B1000A14B1E5D9E4B00221A70DB780A2BD6D863
:104B200001A252F823F000BF814A0008814A000820
:104B30009F4A0008834B0008554B0008B14B000802
:104B4000DF4B00081B4C00085D4C0008AD4C000812
:104B5000AD4C00088E4981F88862B1F88432DAB22F
:104B6000724082EA0212D2B21B0A43EA02231BB24B
:104B700083EAC20383EA1213A1F884320323CB70C1
:104B8000A5E7834981F88962B1F88432DAB27240CC
:104B900082EA0212D2B21B0A43EA02231BB283EA60
:104BA000C20383EA1213A1F884320523CB708EE787
:104BB000774981F88A62B1F88432DAB2724082EAC7
:104BC0000212D2B21B0A43EA02231BB283EAC203D7
:104BD00083EA1213A1F884320623CB7077E76C497D
:104BE00081F88B62B1F88432DAB2724082EA021242
:104BF000D2B21B0A43EA02231BB283EAC20383EA4E
:104C00001213A1F8843291F8873213B90822CA70BE
:104C10005DE75F4B0722DA7059E75D490B795A1C53
:104C20000A7101F52372D654B1F88432DAB27240B7
:104C300082EA0212D2B21B0A43EA02231BB283EABF
:104C4000C20383EA1213A1F884320A7991F88732F9
:104C50009A427FF43CAF0822CA7038E74C4890F87B
:104C60008B224E4B134493F87030B0F88422D1B2AB
:104C70004B4083EA0313D9B2130A43EA01231BB260
:104C800083EAC10383EA11139BB2A0F88432DBB23A
:104C90009E4207D00A22C2703D4B1A7903F5237356
:104CA0009E5414E73A4B0922DA70F5E70A2B06D036
:104CB000B3B2374AB2F88422B3EB122F12D0344B7E
:104CC00002221A7032490123CB700B7901F523724D
:104CD0000133D6544FF4887201F521712D4800F04C
:104CE0009DFBF4E62A4B01221A70EBE7284B93F860
:104CF00088225A711B8913B9254A00215181013339
:104D0000234A1381E8E6224B1A79134493F88C2244
:104D100093F88D3242EA03231E4A1380E7E61C4BC8
:104D20009A7801329A7000221A700122DA70FE2EEF
:104D300001D00023E0E61A460223D370002382F854
:104D400087324FF6FF71A2F88412D5E6114BDB795A
:104D5000542B50D08A2B3CD043B3FEF7D1FB0546F1
:104D6000FFF77EFE00230E4A13700E4A13700A20CE
:104D7000FDF7AFFE0B4B1B78DBB2012BFAD1C8223B
:104D800005490948FDF77AFC00231C46B6E600BF3A
:104D9000743D0020544500206446002064540008FF
:104DA000944700209F480020FC4900204FF4804198
:104DB0001A48FCF78DFB1A49CA781A480023036089
:104DC00043600372092A28BF0922083100F026FB3C
:104DD000C3E7134EF478242C28BF2424124D242238
:104DE0000021284600F025FB224606F1080128464E
:104DF00000F014FBB1E70A4EF478352C28BF3524B7
:104E00000A4D35220021284600F013FB224606F108
:104E10000801284600F002FB9FE700BF001802408F
:104E2000544500202C4700207047002038470020C0
:104E300030B58BB000240594069407940894099427
:104E400001941E4B1A6B42F020021A631A6B02F097
:104E500020020192019A02941A6B42F080021A63B6
:104E60001A6B02F080020292029A03941A6B42F0CB
:104E700001021A631A6B02F001020392039A04946E
:104E80001A6B42F040021A631B6B03F04003049359
:104E9000049B0B4D22464FF4C0412846FCF712FB01
:104EA0004FF4C0430593012306930794032308930B
:104EB00005A92846FCF716FA0BB030BD00380240B1
:104EC0000018024008B51348134B0360134B4360AE
:104ED00000238360C3604FF48042026143618361B9
:104EE000C3610362FCF736FB50B900210948FCF7A7
:104EF000C3FC40B900210748FCF7E0FC30B908BD0D
:104F000000F07CF9F1E700F079F9F3E700F076F9C9
:104F1000F5E700BFA848002000580040A086010027
:104F200030B589B000230393049305930693079348
:104F30000268144B9A4201D009B030BD002501959A
:104F4000114C236B43F020032363236B03F02003F6
:104F50000193019B032303931222049201220592E1
:104F600006930423079303A90848FCF7BBF90295AD
:104F7000236C43F480032364236C03F480030293C3
:104F8000029BD9E70058004000380240001402405C
:104F900008B519230A22FCF7ADFB08B9002008BDAB
:104FA0000120FCE708B5044B4FF07E521A6000F078
:104FB00011F900F01FF9FEE73C44002010B582B063
:104FC00000240094114B5A6C42F480425A645A6C8B
:104FD00002F480420092009A01941A6C42F08052CE
:104FE0001A641B6C03F080530193019B22460F212E
:104FF0006FF00100FBF7CCFE224605210846FBF7C7
:10500000C7FE0520FBF7F8FE02B010BD00380240D5
:1050100010B588B0002201461920FBF7B9FE19200F
:10502000FBF7EAFE00240194144B5A6C42F0010293
:105030005A645B6C03F001030193019B02A903A86E
:10504000FCF750FFFCF73EFF43000D48A0FB032395
:105050009B0C013B0B480C4A026040F2E732C260F5
:10506000436004618460FDF793F810B1012008B03B
:1050700010BD0448FCF755FFF9E700BF00380240B7
:1050800083DE1B43FC480020000001407047FEE720
:10509000FEE7FEE7FEE770477047000008B50248EC
:1050A000FCF754FF08BD00BFFC48002008B54FF4D2
:1050B00080410248FCF70CFA08BD00BF001802400E
:1050C00000B583B0114B1B681A6812F0100F05D1A0
:1050D0000E48FDF725FC03B05DF804FB00220192A9
:1050E0001A6801925A680192019A1A685B68074827
:1050F000FDF718FB064B1B685B68DB43DBB2054A18
:105100001370054B01221A70E2E700BFFC49002032
:105110009C490020944700209F48002008B5024881
:10512000FBF7F2FF08BD00BF9C49002008B502480C
:10513000FBF7EAFF08BD00BF3C49002010B594B062
:105140003022002108A800F074F90024039404948C
:105150000594069407940194164B1A6C42F0805201
:105160001A641B6C03F080530193019B0294124A52
:10517000136823F4404343F480431360136803F43B
:1051800040430293029B0223089301230B931023B5
:105190000C930E9408A8FCF7B3FB0F23039304941D
:1051A000059406940794214603A8FCF7C9FD14B0A2
:1051B00010BD00BF003802400070004008B5026812
:1051C000034B9A4200D008BDFBF7D0FDFBE700BFC0
:1051D0000000014008B5FFF7F1FEFFF7AFFFFFF752
:1051E00027FEFEF77DFFFFF76DFE00F02FF8FFF7BB
:1051F000EBFB08BD08B5FDF731FC08BD70470000AA
:105200000F49D1F8883043F47003C1F888300D4B52
:105210001A6842F001021A60002098601A6822F0B1
:10522000847222F480321A60074A5A601A6822F4A3
:1052300080221A60D8604FF000638B60704700BF17
:1052400000ED00E0003802401030002408B50A48A4
:105250000A4B03604FF4E133436000238360C36073
:1052600003610C2242618361C361FDF791F900B9CA
:1052700008BDFFF7C3FFFBE7FC4900200010014019
:1052800030B589B0002303930493059306930793E5
:10529000026803F1804303F588339A4201D009B0D4
:1052A00030BD04460025019503F594335A6C42F055
:1052B00010025A645A6C02F010020192019A02958F
:1052C0001A6B42F001021A631B6B03F00103029395
:1052D000029B4FF4C06303930223049301230593BD
:1052E000032306930723079303A92048FBF7FAFF3C
:1052F0001F48204B03604FF0006343608560C5602A
:105300004FF48063036145618561C5610562456253
:10531000FBF7FCFD18BB164B63639C631648174BE9
:1053200003604FF000634360402383600023C36049
:105330004FF48062026143618361C361036243622F
:10534000FBF7E4FD70B90C4B23639C63002205213D
:105350002520FBF71DFD2520FBF74EFD9FE7FFF7FE
:105360004DFFD8E7FFF74AFFEDE700BF000002401E
:105370009C490020406402403C490020B86402403F
:10538000DFF834D0002103E00C4B5B58435004316C
:105390000B480C4B42189A42F6D30B4A02E000230A
:1053A00042F8043B094B9A42F9D3FFF729FF00F07A
:1053B00011F8FFF7F7FD704700000320345600088E
:1053C0000000002010000020100000203C4A0020B7
:1053D000FEE7000070B50D4E0D4CA41BA410002577
:1053E000A54209D10B4E0C4C00F02CF8A41BA410C4
:1053F0000025A54205D170BD56F8253098470135E6
:10540000EEE756F8253098470135F2E72C560008AC
:105410002C5600082C5600083056000810B5431EC4
:105420000A44914200D110BD11F8014B03F8014F1D
:10543000F7E702440346934200D1704703F8011B8B
:10544000F9E70000F8B500BFF8BC08BC9E467047FD
:0C545000F8B500BFF8BC08BC9E467047D1
:10545C00000610160006101614560008E942000843
:10546C0000000000000000008000000000000000B0
:10547C00000000000C560008C145000800000000A8
:10548C00000000000002000000000000000000000E
:10549C00FC550008794A00080000000000000000DC
:1054AC00000200000000000000000000F45500089D
:1054BC002541000800000000000000000002000070
:1054CC000000000000000000327C8900EDD96877F4
:1054DC00750000590000000000000000D69FDCA8F9
:1054EC001817AA90437327F6B968EDF4DED409FEB9
:1054FC00E61C1C84DDE80B9929274EC484000F039D
:10550C000000000000A7B777BF76941500F37C006D
:10551C000026149E988F0000006A31168F8C059619
:10552C0000E7B73F362F000000000000AF669ED0AA
:10553C00385D8A6C20B95422AE7CED044C803874F2
:10554C0086EDCBFA57CBDC19E22E1DDF5506E5CBE9
:10555C0001C36DA8B52F48837F00679AB2C80000BD
:10556C0000000000000000000000BD000000000072
:10557C00000000000000000000000000000000001F
:10558C00000000000000000000000000000000000F
:10559C0000000000000000000000000000000000FF
:1055AC000000000000000000000000000000A369E3
:1055BC00972396B300000000005A68555F82B851DB
:1055CC0008CC31AA2C532E00000000000000000073
:1055DC00010203040607080900000000010203048D
:1055EC0049444C45000000007461736B325F00004D
:1055FC00726563656976655F7461736B5F0000004B
:10560C007461736B315F00005374617274696E67FF
:08561C007461736B00000000D3
:0856240078B4FF7F01000000D3
:04562C00D50100089C
:04563000B1010008BC
:105634000100000010000000AAAAAAAA0024F40095
:04000005080053811B
:00000001FF
